:100000000C9463000C948B000C948B000C943806B9
:100010000C9438060C9438060C948B000C948B00CE
:100020000C948B000C948B000C948B000C948B0024
:100030000C948B000C948B000C948B000C948B0014
:100040000C94EE050C948B000C94BC050C94960556
:100050000C948B000C948B000C948B000C948B00F4
:100060000C94B0060C948B000000000024002700C4
:100070002A0000000008000201000003040700003D
:1000800000000000000000000000230026002900FE
:1000900000000000250028002B00040404040404D0
:1000A0000404020202020202030303030303010227
:1000B00004081020408001020408102001020408F6
:1000C00010201008150B11241FBECFEFD8E0DEBFA3
:1000D000CDBF23E0AEE6B1E001C01D92AA30B20769
:1000E000E1F711E0A0E0B1E0E4E3F0E202C0059046
:1000F0000D92AE36B107D9F710E0C2E6D0E004C0E9
:100100002197FE010E94150EC136D107C9F70E9442
:100110002B090C940D100C940000AF92BF92CF925B
:10012000DF92EF92FF920F931F93CF93DF936C01B7
:100130007B018B01040F151FEB015E01AE18BF0898
:10014000C017D10759F06991D601ED91FC9101904A
:10015000F081E02DC6010995892B79F7C501DF9162
:10016000CF911F910F91FF90EF90DF90CF90BF90B4
:10017000AF900895FC01538D448D252F30E0842FDE
:1001800090E0821B930B541710F0CF9608950197BF
:100190000895FC01918D828D981761F0A28DAE0FAC
:1001A000BF2FB11D5D968C91928D9F5F9F73928F33
:1001B00090E008958FEF9FEF0895FC01918D828D5F
:1001C000981731F0828DE80FF11D858D90E008952C
:1001D0008FEF9FEF0895FC01918D228D892F90E084
:1001E000805C9F4F821B91098F73992708958CE241
:1001F00092E00E94EB0021E0892B09F420E0822F9D
:10020000089580E090E0892B29F00E94F700811189
:100210000C9400000895FC01A48DA80FB92FB11D06
:10022000A35ABF4F2C91848D90E001968F7399272C
:10023000848FA689B7892C93A089B1898C9183700A
:1002400080648C93938D848D981306C00288F38903
:10025000E02D80818F7D80830895EF92FF920F9330
:100260001F93CF93DF93EC0181E0888F9B8D8C8D62
:1002700098131AC0E889F989808185FF15C09FB756
:10028000F894EE89FF896083E889F9898081837019
:10029000806480839FBF81E090E0DF91CF911F91C8
:1002A0000F91FF90EF900895F62E0B8D10E00F5FE9
:1002B0001F4F0F731127E02E8C8D8E110CC00FB6BF
:1002C00007FCFACFE889F989808185FFF5CFCE0157
:1002D0000E940B01F1CFEB8DEC0FFD2FF11DE35AC6
:1002E000FF4FF0829FB7F8940B8FEA89FB898081DA
:1002F0008062CFCFCF93DF93EC01888D8823B9F054
:10030000AA89BB89E889F9898C9185FD03C0808120
:1003100086FD0DC00FB607FCF7CF8C9185FFF2CF9D
:10032000808185FFEDCFCE010E940B01E9CFDF91E7
:10033000CF91089590E0FC01EE58FF4F2491FC010D
:10034000E255FF4F3491FC01E656FF4FE491EE2356
:10035000C9F0222339F0233001F1A8F4213019F13A
:10036000223029F1F0E0EE0FFF1FE057FF4FA5917B
:10037000B4918FB7F894EC91611126C030953E236B
:100380003C938FBF08952730A9F02830C9F024305E
:1003900049F7809180008F7D03C0809180008F7726
:1003A00080938000DFCF84B58F7784BDDBCF84B5A9
:1003B0008F7DFBCF8091B0008F778093B000D2CF3C
:1003C0008091B0008F7DF9CF3E2BDACFCF93DF93B2
:1003D00090E0FC01E255FF4F249186569F4FFC01AF
:1003E00084918823D1F090E0880F991FFC01E8598F
:1003F000FF4FA591B491FC01E057FF4FC591D491F7
:1004000061110EC09FB7F8948C91E22FE0958E2376
:100410008C932881E223E8839FBFDF91CF910895D9
:100420008FB7F894EC91E22BEC938FBFF6CF3FB7E8
:10043000F8948091280290912902A0912A02B0910B
:100440002B0226B5A89B05C02F3F19F00196A11DD0
:10045000B11D3FBFBA2FA92F982F8827BC01CD010E
:10046000620F711D811D911D42E0660F771F881F6D
:10047000991F4A95D1F708958F929F92AF92BF929C
:10048000CF92DF92EF92FF924B015C010E94170224
:100490006B017C010E9417026C197D098E099F096E
:1004A000683E734081059105A8F321E0821A910806
:1004B000A108B10888EEC80E83E0D81EE11CF11C2B
:1004C00081149104A104B10429F7FF90EF90DF900B
:1004D000CF90BF90AF909F908F9008952091210270
:1004E000309122022817390771F4909120028091EF
:1004F0001F02981741F0E0912002F0E0E152FE4F18
:10050000808190E008958FEF9FEF08950895EF9216
:10051000FF920F931F93CF93DF93DC015C96ED90D6
:10052000FC905D97E114F10479F481E090E013967A
:100530009C938E93129790E080E0DF91CF911F9172
:100540000F91FF90EF9008955196ED91FC91529785
:1005500050968C915097982F90950FB75E962C914E
:100560005E97122F127021FD6095F894208111235F
:1005700019F1282B2083E7012197F1F728E0462F76
:1005800050E0308160FF1AC0382B3083E70121979B
:10059000F1F7BA0175956795215089F7112381F01C
:1005A0008081892380830FBF5C968D919C910197F8
:1005B000F1F781E090E0C1CF2923DCCF3923E5CFEB
:1005C0009081892BEFCF20912102309122022817B0
:1005D000390771F480911F022091200290E0805C25
:1005E0009F4F821B910960E470E00E94AC0D08955A
:1005F00090E080E008952091210230912202281796
:100600003907B9F49091200280911F02981789F060
:10061000E0912002F0E0E152FE4F80812091200223
:1006200030E02F5F3F4F2F7333272093200290E05D
:1006300008958FEF9FEF089520919501260F33279E
:10064000331F21323105ECF42091B901FC0190E017
:1006500080E0243069F082E00895A0919501219115
:10066000AC014B585E4FA40FB52FB11D2C930196D2
:10067000861798F380919501680F6093950180E04B
:10068000089581E008958FEF9FEF08958FEF9FEF1A
:10069000089580916E0190E091958195910908955A
:1006A000CF93DF93CB01EA01642F0E941C03CE019C
:1006B000DF91CF910895CF93DF931F92CDB7DEB72F
:1006C000698361E0CE0101960E941C0381E090E005
:1006D0000F90DF91CF910895089590E080E0089504
:1006E000CF93DF93EC0160E08E810E949A0161E07C
:1006F0008E810E949A0160E08E810E949A018BE8AF
:1007000091E00197F1F7DF91CF910895CF92DF92B9
:10071000EF92FF920F931F93CF93DF936C017C01B5
:1007200087E0E80EF11CD0E0C0E0062F10E0B80131
:100730000C2E02C0759567950A94E2F76170F70177
:1007400081917F010E949A012196C430D10579F7E9
:10075000C601DF91CF911F910F91FF90EF90DF9035
:10076000CF900C947003CF92DF92EF92FF920F9391
:100770001F93CF93DF93EC01F62E642F8C810E94A0
:100780009A018D818F3F19F060E00E949A010F2D30
:1007900010E08F8584FF25C06E0187E0C80ED11C54
:1007A000F12CE12CB8010E2C02C0759567950A94C6
:1007B000E2F76170F60181916F010E949A01FFEFEB
:1007C000EF1AFF0A88E0E816F10461F7CE01DF9125
:1007D000CF911F910F91FF90EF90DF90CF900C94ED
:1007E0007003B80184E0759567958A95E1F7CE01AD
:1007F0000E9486036F2DCE01DF91CF911F910F9143
:10080000FF90EF90DF90CF900C94860340E0682F2C
:100810008FEC92E00C94B303CF93DF93823029F4F2
:100820009091DE0298609093DE028093E202109233
:10083000E30280E48093E40280E18093E50280E5B6
:100840008093E60261E08091D3020E94E6018091EC
:10085000D4028F3F19F061E00E94E60161E08091CF
:10086000D5020E94E601CFECD2E09E012F5C32401F
:100870008091DE0284FD0BC084E090E02196281771
:10088000390744F461E08E810E94E601EECF88E0F2
:1008900090E0F4CF8BE39DE00197F1F760E0809169
:1008A000D3020E949A0160E08091D5020E949A01D1
:1008B0008091D4028F3F19F060E00E949A018091EC
:1008C000DE0284FD39C063E08FEC92E00E94860373
:1008D000CBE4D6E4CE010197F1F763E08FEC92E030
:1008E0000E9486032197F1F763E08FEC92E00E946B
:1008F000860383E592E00197F1F762E08FEC92E0E6
:100900000E9486038091DE0280620E94060484E0D9
:100910008093DF028CE00E94060481E00E940604BE
:100920008BE39FE10197F1F782E08093E00286E09C
:10093000DF91CF910C94060480620E9406048BE440
:1009400096E40197F1F78091DE0280620E9406042E
:1009500083E592E00197F1F78091DE0280620E94C8
:100960000604D0CF9091E202891710F08FEF890F23
:10097000E82FF0E0E153FD4F848980680C94060471
:1009800041E00E94B30381E090E00895FB010190F3
:100990000020E9F73197AF01461B570BDC01ED91C1
:1009A000FC910280F381E02D09948F929F92AF9287
:1009B000BF92EF92FF920F931F93CF93DF93CDB728
:1009C000DEB7A1970FB6F894DEBF0FBECDBF7C0196
:1009D000FA01CB0119A2223008F42AE08E010F5D42
:1009E0001F4F822E912CB12CA12CBF01A501940187
:1009F0000E94C00DF901CA016A300CF5605DD80192
:100A00006E938D01232B242B252B79F790E080E02A
:100A1000109721F0BD01C7010E94C604A1960FB630
:100A2000F894DEBF0FBECDBFDF91CF911F910F9124
:100A3000FF90EF90BF90AF909F908F900895695C6A
:100A4000DECF1F93CF93DF9385ED8093BC00809121
:100A5000710190917201A0917301B0917401079698
:100A6000A11DB11D23E0B695A795979587952A9569
:100A7000D1F72091BC0024FD03C01092B90152C0EF
:100A800040917101509172016091730170917401F4
:100A9000452B462B472B69F30097A105B10541F083
:100AA00025E32A95F1F700000197A109B109E1CFEB
:100AB00080917001C1E0C0936F01882399F1D091BA
:100AC000B8001091BA008091BC008A7B8093BC0072
:100AD00060E082E10E949A0160E083E10E949A0155
:100AE0001092B901C093BB011092BA0161E082E19A
:100AF0000E949A0161E083E10E949A018091B9000D
:100B00008E7F8093B9008091B9008D7F8093B9006A
:100B100088E48093B80085E48093BC001093BA0009
:100B2000D093B800DF91CF911F9108951F920F923B
:100B30000FB60F9211242F933F934F935F936F93B0
:100B40007F938F939F93AF93BF93EF93FF938CE229
:100B500092E00E940B01FF91EF91BF91AF919F91A5
:100B60008F917F916F915F914F913F912F910F9056
:100B70000FBE0F901F9018951F920F920FB60F92F5
:100B800011242F938F939F93EF93FF93E0913C0257
:100B9000F0913D028081E0914202F091430282FD9A
:100BA0001BC09081809145028F5F8F732091460218
:100BB000821741F0E0914502F0E0E45DFD4F958F32
:100BC00080934502FF91EF919F918F912F910F900C
:100BD0000FBE0F901F9018958081F4CF1F920F9237
:100BE0000FB60F9211242F933F938F939F93AF9340
:100BF000BF938091240290912502A0912602B0918A
:100C000027023091230223E0230F2D3758F5019658
:100C1000A11DB11D209323028093240290932502ED
:100C2000A0932602B0932702809128029091290276
:100C3000A0912A02B0912B020196A11DB11D8093B3
:100C4000280290932902A0932A02B0932B02BF910D
:100C5000AF919F918F913F912F910F900FBE0F9069
:100C60001F90189526E8230F0296A11DB11DD2CF23
:100C70001F920F920FB60F9211242F933F934F9311
:100C80005F936F937F938F939F93AF93BF93EF93F4
:100C9000FF93E0912102F0912202309749F0A6855E
:100CA000B7858585968D91FF14C09C918923A1F409
:100CB000FF91EF91BF91AF919F918F917F916F9134
:100CC0005F914F913F912F910F900FBE0F901F900A
:100CD00018959C91892361F7A389B4899C91858992
:100CE000809589238C93868997890197F1F7608D88
:100CF000718DA685B785558538E020E0CB01019739
:100D0000F1F7822F90E095958795282F4C914523F8
:100D100009F02068315091F7868D81FD20958091F2
:100D20001F0290E001968F739927309120023817A7
:100D300099F0A0911F02B0E0A152BE4F2C93809376
:100D40001F02828D938D0197F1F7A389B4898C914D
:100D50009589892B8C93ACCF868D8160868FF1CF5E
:100D60001F920F920FB60F9211242F933F934F9320
:100D70005F936F937F938F939F93AF93BF93EF9303
:100D8000FF938091B900887F803609F44AC0F0F55E
:100D9000883209F4A5C018F5803109F499C0B8F477
:100DA000882309F4F5C0883009F492C0FF91EF91CF
:100DB000BF91AF919F918F917F916F915F914F9173
:100DC0003F912F910F900FBE0F901F901895883173
:100DD00009F486C0803251F78093B80114C0803482
:100DE00009F49BC040F48033B9F38833F9F680935B
:100DF000B80185ECAEC0803509F483C0883509F4AC
:100E000094C0883499F60E942105D0CF883909F41E
:100E10008AC038F5883729F050F4883611F08037C9
:100E200029F683E08093B9011092B70155C0883844
:100E300009F479C0803919F0803809F0B7CF809172
:100E4000B701803208F06FC0E091B70181E08E0FEA
:100E50008093B7018091BB00F0E0E956FE4F80839C
:100E60003BC0803B39F0D0F4803A09F477C0883A2F
:100E700009F09CCF84E08093B90110929601109202
:100E80009501F0E0E0E009958091950181110FC096
:100E900081E0809395011092750109C0803C09F4AE
:100EA000A8CF883C09F4A5CF883B09F07FCFE0911B
:100EB000960181E08E0F80939601F0E0EB58FE4F93
:100EC00080818093BB00909196018091950129C00B
:100ED0008091DE018093BB0085EC8093BC0066CFDF
:100EE0009091DD018091DC01981758F5E091DD01CA
:100EF00081E08E0F8093DD01F0E0E454FE4F8081AD
:100F0000E9CFE091DD0181E08E0F8093DD018091DA
:100F1000BB00F0E0E454FE4F80839091DD018091AE
:100F2000DC019817C8F285E8D8CFE091DD0181E0B7
:100F30008E0F8093DD018091BB00F0E0E454FE4F02
:100F400080838091BB0181115ECF81E08093BA01E3
:100F500084EA8093BC001092B90128CF85EC80937D
:100F6000BC001092B9018091B701803230F4E09159
:100F7000B701F0E0E956FE4F10826091B70170E0D2
:100F800087E991E0F0E0E0E009951092B7010ECF1B
:100F90001092B80138CFCF92DF92EF92FF920F9369
:100FA0001F93E82FF92F05C00150110921093109BC
:100FB00061F1908196239417B9F305C0015011098E
:100FC0002109310911F1908196239413F7CFC12C97
:100FD000D12CE12CF12C0AC08FEFC81AD80AE80AEC
:100FE000F80A0C151D052E053F0579F08081862332
:100FF000841791F36C2D7D2D8E2D9F2D1F910F91B8
:10100000FF90EF90DF90CF90089560E070E080E077
:1010100090E01F910F91FF90EF90DF90CF90089597
:1010200010922F0210922E0288EE93E0A0E0B0E022
:101030008093300290933102A0933202B093330236
:101040002AE031E030932D0220932C0225EC30E091
:10105000309339022093380224EC30E030933B0285
:1010600020933A0220EC30E030933D0220933C0282
:1010700021EC30E030933F0220933E0222EC30E03E
:10108000309341022093400226EC30E0309343023B
:10109000209342021092450210924602109247029B
:1010A000109248021092EA021092E9028093EB0239
:1010B0009093EC02A093ED02B093EE0288E291E0EF
:1010C0009093E8028093E7021092FE021092FD02D4
:1010D000109200031092FF0210920203109201037B
:1010E0001092040310920303609105036E7F6D7FDD
:1010F000609305036695617081E0682781E10E9435
:101100009A0161E081E10E94E601EFEBF0E0E491F9
:10111000E093F702EBEAF0E0E491F0E0EE0FFF1F5E
:10112000E057FF4F859194919093F9028093F802D4
:1011300060E080E10E94E6018091050381FD04C02A
:1011400061E080E10E949A0180E18093F302EEEB7E
:10115000F0E0E491E093F402EAEAF0E0E491F0E0F8
:10116000EE0FFF1FEA57FF4F859194919093F6027F
:101170008093F5021092D2021092D1028CE191E09C
:101180009093D0028093CF0282E08093D3028FEFBE
:101190008093D40283E08093D50284E08093D602CA
:1011A00085E08093D70286E08093D80287E0809321
:1011B000D9021092DA021092DB021092DC02109235
:1011C000DD021092DE0281E00E940C041092CA023D
:1011D0001092C9021092CC021092CB021092CE0251
:1011E0001092CD0261E070E090E080E00E94400F3C
:1011F0000097E1F09093CA028093C9021092CC024A
:101200001092CB022091CD023091CE02232B11F40B
:10121000FC0110821092CE021092CD0266E571E0C0
:101220008091C9029091CA020C9406108091C90263
:101230009091CA02009711F00E94B70E1092CA0254
:101240001092C9021092CE021092CD021092CC02DE
:101250001092CB020895CF93DF9300D000D0CDB78A
:10126000DEB7789484B5826084BD84B5816084BD26
:1012700085B5826085BD85B5816085BD80916E0034
:10128000816080936E001092810080918100826065
:1012900080938100809181008160809381008091A2
:1012A00080008160809380008091B1008460809391
:1012B000B1008091B00081608093B00080917A008D
:1012C000846080937A0080917A00826080937A00B3
:1012D00080917A00816080937A0080917A008068A2
:1012E00080937A001092C100E0913C02F0913D029F
:1012F00082E08083E0913802F09139021082E0911F
:101300003A02F0913B028FEC808310924402E0910C
:101310004002F091410286E08083E0913E02F0912C
:101320003F02808180618083E0913E02F0913F0224
:10133000808188608083E0913E02F0913F0280814D
:1013400080688083E0913E02F0913F0280818F7D32
:10135000808382E00E940C0461E08CE00E94E60140
:1013600060E08BE00E94E60180E00E94B20466E348
:1013700071E08FEC92E00E94C60481E00E94B2040A
:1013800064E471E08FEC92E00E94C60481E00E9468
:1013900006048BE39FE10197F1F793E2292E312CAC
:1013A00061E08CE00E94E60160E08CE00E949A011E
:1013B00083E090E00197F1F761E08CE00E949A01F0
:1013C000C1010197F1F760E08CE00E949A0160E0B2
:1013D0008BE00E94E601E9EBF0E06491E5EAF0E0E1
:1013E0008491E82FF0E0EE0FFF1FEA57FF4F859141
:1013F000949100E412E42FE030E0462F0E94CB07E6
:10140000611571058105910529F06F5F7F4F8F4F41
:101410009F4F9F702AE330E040E050E00E94E20DD1
:1014200029833A834B835C8364E670E080E090E03C
:101430000E943C0264E571E08CE292E00E94C604E6
:1014400080E00E94B20466E571E08FEC92E00E94B9
:10145000C6046AE070E080E090E00E943C0281E017
:101460000E94B20467E571E08FEC92E00E94C6042E
:1014700069817A818B819C810E94400B20E030E061
:1014800048EC52E40E94010D6B017C014B015C01B0
:10149000AC019B010E94A70D6FE571E081111AC09C
:1014A00026013701E89477F82FEF3FEF4FE75FE72A
:1014B000C301B2010E94A70D811135C02FEF3FEF8C
:1014C0004FE75FE7C301B2010E94390B18165CF5C4
:1014D00063E671E08FEC92E00E94C6046BE671E077
:1014E0008FEC92E00E94C60480E00E94B2042AE0E1
:1014F00049815A816B817C8187EE92E00E94D504FC
:1015000064E571E087EE92E00E94C60480E090E01E
:10151000892B09F445CF0E94F700882309F440CFB6
:101520000E9400003DCF2FEF3FEF4FE75FE4C70180
:10153000B6010E94A20D18161CF467E671E0CACF2E
:101540002FEF3FEF4FE75FECC701B6010E94390B69
:1015500087FDF3CF20E030E0A901C701B6010E946A
:10156000390B87FF0CC041E06DE28FEC92E00E94E6
:10157000B30346015701B7FAB094B7F8B0942AE024
:1015800037ED43EA5BE3C501B4010E94950C4B01C2
:101590005C010E94730D6B017C010E943E0B9B015C
:1015A000AC01C501B4010E94940C4B015C012AE01E
:1015B000B701A6018FEC92E00E94D50441E06EE2F3
:1015C0008FEC92E00E94B30320E030E040E251E46F
:1015D000C501B4010E949F0B4B015C010E94730D79
:1015E0006B01F12CE12C2AE0B701A6018FEC92E00F
:1015F0000E94D504C701B6010E943E0B9B01AC01BD
:10160000C501B4010E94940C20E030E040E251E4B6
:101610000E949F0B0E94730DAB0170E060E02AE016
:101620008FEC92E00E94D50459CF8091C90290912D
:10163000CA02009711F00E94B70E88E291E09093E1
:10164000E8028093E7028091210290912202875E56
:10165000924071F4E091FA02F091FB029081809146
:10166000FC0280958923808310922202109221022D
:1016700008950E947B0B08F481E00895E89409C066
:1016800097FB3EF490958095709561957F4F8F4FB5
:101690009F4F9923A9F0F92F96E9BB279395F695CB
:1016A000879577956795B795F111F8CFFAF4BB0F49
:1016B00011F460FF1BC06F5F7F4F8F4F9F4F16C0AD
:1016C000882311F096E911C0772321F09EE8872F37
:1016D000762F05C0662371F096E8862F70E060E0F3
:1016E0002AF09A95660F771F881FDAF7880F96956C
:1016F000879597F90895990F0008550FAA0BE0E810
:10170000FEEF16161706E807F907C0F012161306C3
:10171000E407F50798F0621B730B840B950B39F403
:101720000A2661F0232B242B252B21F408950A2669
:1017300009F4A140A6958FEF811D811D08950E9497
:10174000B20B0C94230C0E94150C38F00E941C0C58
:1017500020F0952311F00C940C0C0C94120C112415
:101760000C94570C0E94340C70F3959FC1F3950FA5
:1017700050E0551F629FF001729FBB27F00DB11D15
:10178000639FAA27F00DB11DAA1F649F6627B00DA5
:10179000A11D661F829F2227B00DA11D621F739F8E
:1017A000B00DA11D621F839FA00D611D221F749F9C
:1017B0003327A00D611D231F849F600D211D822FE3
:1017C000762F6A2F11249F5750409AF0F1F088230A
:1017D0004AF0EE0FFF1FBB1F661F771F881F915037
:1017E0005040A9F79E3F510580F00C940C0C0C94CE
:1017F000570C5F3FE4F3983ED4F386957795679551
:10180000B795F795E7959F5FC1F7FE2B880F911D60
:101810009695879597F9089597F99F6780E870E006
:1018200060E008959FEF80EC089500240A94161656
:10183000170618060906089500240A9412161306BE
:10184000140605060895092E0394000C11F488234C
:1018500052F0BB0F40F4BF2B11F460FF04C06F5F68
:101860007F4F8F4F9F4F089557FD9058440F551F3E
:1018700059F05F3F71F04795880F97FB991F61F012
:101880009F3F79F087950895121613061406551F89
:10189000F2CF4695F1DF08C0161617061806991FF5
:1018A000F1CF86957105610508940895E894BB27EA
:1018B00066277727CB0197F908952F923F924F9291
:1018C0005F926F927F928F929F92AF92BF92CF92D0
:1018D000DF92EF92FF920F931F93CF93DF93CDB7D9
:1018E000DEB7CA1BDB0B0FB6F894DEBF0FBECDBF51
:1018F00009942A88398848885F846E847D848C8422
:101900009B84AA84B984C884DF80EE80FD800C812A
:101910001B81AA81B981CE0FD11D0FB6F894DEBF0D
:101920000FBECDBFED0108955058BB27AA270E94D6
:10193000AC0C0C94230C0E94150C38F00E941C0C6B
:1019400020F039F49F3F19F426F40C94120C0EF495
:10195000E095E7FB0C940C0CE92F0E94340C58F333
:10196000BA17620773078407950720F079F4A6F584
:101970000C94560C0EF4E0950B2EBA2FA02D0B01F3
:10198000B90190010C01CA01A0011124FF27591BC4
:1019900099F0593F50F4503E68F11A16F040A22FCA
:1019A000232F342F4427585FF3CF4695379527953B
:1019B000A795F0405395C9F77EF41F16BA0B620B3A
:1019C000730B840BBAF09150A1F0FF0FBB1F661F81
:1019D000771F881FC2F70EC0BA0F621F731F841FC4
:1019E00048F4879577956795B795F7959E3F08F0EA
:1019F000B0CF9395880F08F09927EE0F97958795AC
:101A000008950E94150D0C94230C0E941C0C58F094
:101A10000E94150C40F029F45F3F29F00C940C0C47
:101A200051110C94570C0C94120C0E94340C68F356
:101A30009923B1F3552391F3951B550BBB27AA2787
:101A400062177307840738F09F5F5F4F220F331FC1
:101A5000441FAA1FA9F335D00E2E3AF0E0E832D089
:101A600091505040E695001CCAF72BD0FE2F29D08C
:101A7000660F771F881FBB1F261737074807AB075E
:101A8000B0E809F0BB0B802DBF01FF2793585F4FD3
:101A90003AF09E3F510578F00C940C0C0C94570CC6
:101AA0005F3FE4F3983ED4F3869577956795B795B5
:101AB000F7959F5FC9F7880F911D9695879597F9C0
:101AC0000895E1E0660F771F881FBB1F6217730739
:101AD0008407BA0720F0621B730B840BBA0BEE1F4E
:101AE00088F7E09508950E943C0C88F09F5798F085
:101AF000B92F9927B751B0F0E1F0660F771F881F13
:101B0000991F1AF0BA95C9F714C0B13091F00E942C
:101B1000560CB1E008950C94560C672F782F882747
:101B2000B85F39F0B93FCCF3869577956795B39553
:101B3000D9F73EF490958095709561957F4F8F4FC2
:101B40009F4F08950E947B0B08F48FEF08950E9429
:101B50007B0B880B990B089597FB072E16F40094C6
:101B600007D077FD09D00E94010E07FC05D03EF496
:101B7000909581959F4F0895709561957F4F089539
:101B8000A1E21A2EAA1BBB1BFD010DC0AA1FBB1F81
:101B9000EE1FFF1FA217B307E407F50720F0A21BF3
:101BA000B30BE40BF50B661F771F881F991F1A9460
:101BB00069F760957095809590959B01AC01BD018A
:101BC000CF010895052E97FB1EF400940E94F90D95
:101BD00057FD07D00E94C00D07FC03D04EF40C94B3
:101BE000F90D50954095309521953F4F4F4F5F4FE0
:101BF000089590958095709561957F4F8F4F9F4F79
:101C00000895AA1BBB1B51E107C0AA1FBB1FA61743
:101C1000B70710F0A61BB70B881F991F5A95A9F795
:101C200080959095BC01CD010895EE0FFF1F0590A2
:101C3000F491E02D09940F931F93CF93DF9382309B
:101C4000910510F482E090E0E0910803F09109031F
:101C500030E020E0B0E0A0E0309799F421153105A4
:101C600009F44AC0281B390B24303105D8F58A8184
:101C70009B816115710589F1FB0193838283FE01CC
:101C800011C0408151810281138148175907E0F04A
:101C90004817590799F4109761F012960C93129710
:101CA00013961C933296CF01DF91CF911F910F9124
:101CB00008950093080310930903F4CF211531050B
:101CC00051F04217530738F0A901DB019A01BD0119
:101CD000DF01F801C1CFEF01F9CF909309038093A1
:101CE0000803CDCFFE01E20FF31F819391932250A1
:101CF000310939832883D7CF209106033091070318
:101D0000232B41F42091020130910301309307030A
:101D10002093060320910001309101012115310526
:101D200041F42DB73EB74091040150910501241BA9
:101D3000350BE0910603F0910703E217F307A0F4D7
:101D40002E1B3F0B2817390778F0AC014E5F5F4F11
:101D50002417350748F04E0F5F1F50930703409339
:101D60000603819391939FCFF0E0E0E09CCFCF9367
:101D7000DF930097E9F0FC01329713821282A09161
:101D80000803B0910903ED0130E020E01097A1F4C1
:101D900020813181820F931F209106033091070328
:101DA0002817390709F061C0F0930703E093060391
:101DB000DF91CF910895EA01CE17DF07E8F54A8158
:101DC0005B819E0141155105B1F7E901FB83EA836F
:101DD00049915991C40FD51FEC17FD0761F480811B
:101DE00091810296840F951FE901998388838281EE
:101DF00093819B838A83F0E0E0E012968D919C9121
:101E000013970097B9F52D913C911197CD0102964A
:101E1000820F931F2091060330910703281739077B
:101E200039F6309751F51092090310920803B093D8
:101E30000703A0930603BCCFD383C28340815181A3
:101E4000840F951FC817D90761F44E5F5F4F8881D3
:101E50009981480F591F518340838A819B819383C5
:101E600082832115310509F0B0CFF0930903E09387
:101E700008039ECFFD01DC01C0CF13821282D7CFB1
:101E8000B0E0A0E0E6E4FFE00C945F0C8C0100976A
:101E900051F4CB010E941B0E8C01C801CDB7DEB7F7
:101EA000E0E10C947B0CFC01E60FF71F9C01225033
:101EB0003109E217F30708F49DC0D901CD91DC91F7
:101EC0001197C617D70798F0C530D10530F3CE016A
:101ED00004978617970708F3C61BD70B2297C19361
:101EE000D1936D937C93CF010E94B70ED6CF5B0147
:101EF000AC1ABD0A4C018C0E9D1EA0910803B09136
:101F00000903512C412CF12CE12C109731F58091D3
:101F10000603909107038815990509F05CC04616E1
:101F2000570608F058C08091000190910101009778
:101F300041F48DB79EB74091040150910501841B77
:101F4000950BE817F90708F055C0F0930703E093E5
:101F50000603F90171836083A0CF8D919C91119745
:101F600012966C90129713967C901397A815B9054A
:101F700059F56C0142E0C40ED11CCA14DB0420F1F7
:101F8000AC014A195B09DA011296159780F062825A
:101F9000738251834083D9016D937C93E114F104E2
:101FA00071F0D7011396FC93EE93129776CF229699
:101FB0008C0F9D1FF90191838083F301EFCFF09384
:101FC0000903E093080369CF4816590608F42C0169
:101FD0007D01D3019ACFCB010E941B0E7C0100979B
:101FE00049F0AE01B8010E94FD0FC8010E94B70E72
:101FF000870153CF10E000E050CFFB01DC0102C0AD
:1020000001900D9241505040D8F70895FB01DC013A
:1020100001900D920020E1F7089510E0C2E6D0E0B3
:1020200004C0FE010E94150E2196C336D107C9F7E0
:04203000F894FFCF52
:1020340000000A038000000000002D018D00BA009A
:102044007A01EB00C900DD0000000000C0048D002F
:102054006D036C030000000087028D006D0386028F
:10206400E302FB026E0220205365617761766520EE
:102074002020200020204D6561737572656D656EAA
:10208400742020000D0A004865696768743A006E80
:0E209400616E00696E66006F7666006D00007A
:00000001FF
